:100EC3001210FA12116612117612118F1210E41217
:100ED3001144120E971211A71209AF120DF3120D3E
:090EE3003B1208D412110D80EF3E
:03000B00020F5988
:100F5900C0E0C0D0C28D758A66758CFC0539E5394B
:100F6900B4120BC28C758A66758CFC753900D0D0A9
:030F7900D0E03293
:10101D00D2BB00B6FE00C800CBC400CEE500C1F9BE
:0B102D0000C8D50081838587898B8D6A
:100F1100070F80828486888A8C07080000220201DC
:020F21000218B4
:100E2E00C2B500C2B600D2B500E4FEEF1392B4EF25
:100E3E00C313FFD2B600C2B6000EBE08EEE4FEED3E
:100E4E001392B4EDC313FDD2B600C2B6000EBE08A7
:040E5E00EEC2B5002B
:010E6200226D
:100C6B00C2B500C2B600D2B500E4FDEF1392B4EFEB
:100C7B00C313FFD2B600C2B6000DBD08EE00E4FDF3
:100C8B00A2B4E433FFC43333335480FCEEC3134CB0
:100C9B00FED2B600C2B6000DBD08E5C2B500D2B695
:090CAB0000C2B400D2B400AF068F
:010CB400221D
:100F7C00E4FD7F8E120E2EE4FC740F2CF8E6FF7449
:100F8C00082CF8E6FD120E2E0CBC07ED7D807F8E32
:030F9C00020E2E14
:1010CE00E4FBEB90103193FF120C6B74082BF8A617
:0510DE00070BBB07ED4C
:0110E30022EA
:1009AF00E4FDFF120FDFE50AC4540F2430FF120FCE
:1009BF00BFE50A540F2430FF120FBF7F3A120FBF4B
:1009CF00E509C4540F2430FF120FBFE509540F245B
:1009DF0030FF120FBF7D04E4FF120FDFE50EC4548A
:1009EF000F2430FF120FBFE50E540F2430FF120FEC
:1009FF00BF7F2F120FBFE50CC4540F2430FF120F0F
:100A0F00BFE50C540F2430FF120FBF7F2F120FBF03
:100A1F00E50BC4540F2430FF120FBFE50B540F2406
:0F0A2F0030FF120FBF7D03E4FF120FDF020BBA7F
:100BBA00E50D5407FFB407005059900BCBF82828CD
:100BCA0073020C10020BE0020BE8020BF0020BF8A6
:100BDA00020C00020C087BFF7A10791D802E7BFF25
:100BEA007A10792080267BFF7A107923801E7BFF7A
:100BFA007A10792580167BFF7A107928800E7BFF80
:100C0A007A10792B80067BFF7A10792E7D03E4FF18
:030C1A00120DB800
:010C1D0022B4
:0C0EEC00C2A6C2A78980D2A77F057E00A5
:100EF800D3EF9400EE9400400F7DC77C01DCFEDD4B
:080F0800FAEF1F70EB1E80E8F8
:010F100022BE
:10108700D3EF9400EE9400400F7D267C82DCFEDDDA
:08109700FAEF1F70EB1E80E868
:01109F00222E
:100F3500E4FBC2A5D2A6D2A77F01FE120EF8E5807A
:100F450030E70C0BEBD3946440F4C2A77F0022C2B8
:030F5500A77F0172
:010F58002276
:020F9F00A907A0
:100FA100E4FA120F35EF700E7F01FE120EF80AEA15
:0D0FB100D3946440ED22C2A5120EECC2A73D
:010FBE002210
:020FBF00A90780
:100FC100E4FA120F35EF700E7F01FE120EF80AEAF5
:0D0FD100D3946440ED22D2A5120EECC2A70D
:010FDE0022F0
:060DB8008B278A2889291F
:100DBE00EFD394034002E4FFEDD394074002E4FD29
:100DCE00120FDFAB27AA28A9298013EF6016120F86
:100DDE00BFAB270529E52970020528F9AA281203B9
:040DEE00D1FF80E7CA
:010DF20022DE
:1010FA00D2A4D2A37F30120F9F7F0C120F9F7F01C1
:03110A00020F9F32
:100FDF00EF70047F808013BF01047F90800CBF02ED
:100FEF00047F888005BF03027F98EF2DFF020F9FBC
:10112000D2BAC3E6A3BA0030313233343536373859
:02113000390084
:10103800EF1FAA0670011ED39400EA9400400BE447
:0A104800FDEDC3947D50E90D80F723
:01105200227B
:0E117600438901758A66758CFCD2A9D2AF221E
:10105300C296000000000000000000000000000035
:0A10630000000000000000D29622F9
:08118F00D296D297E4F5392253
:100B5000D28C2097FDC28CAD8AAF8CEFFE7C00E476
:100B60002DFFEC3EAB07FA749A2BFB74033AFAAFF5
:100B7000397E007C037DE81203EAEF2BFFEE3AFE9C
:100B8000E48F3D8E3CF53BF53A758A66758CFC7FAB
:100B90001EFE121038E47FF47E01FDFCAB3DAA3C42
:100BA000A93BA83A120487E47B207A4EF9F8120C8C
:090BB000B58F3D8E3C8D3B8C3A63
:010BB9002219
:040ACA00AB07AA06C6
:100ACE007C037DE81203FC8F237C007D64AF03AEB4
:100ADE00021203FC7C007D0A1203FC8D247C007D37
:100AEE000AAF03AE021203FC7C007D0A1203FC8DDA
:100AFE0025AE02AF037C007D0A1203FC8D267BFF20
:100B0E007A117920E4FD7F01120DB8E523901127AB
:100B1E0093FF120FBFE52490112793FF120FBFE52D
:100B2E002590112793FF120FBF7F2E120FBFE526C0
:100B3E0090112793FF120FBF7F63120FBF7F6D02BD
:020B4E000FBFD7
:100DF3001210533097FD120B50AE3CAF3D120ACA8E
:100E030012118FE47FF47E01FDFCAB3DAA3CA93BAC
:100E1300A83AD31204E44007C294E4F52F8005D224
:0B0E230094752F017FC87E000210872D
:1010A000D7B4CCACA3BA0050756D70696E670045BB
:0710B0006E6F7567687E009A
:070F230002300001012F0163
:10113200AD071FED600BE4FEEEC3940D50F20E807E
:01114200F7B5
:011143002289
:10106D00EF1FAA0670011E4A600FE4FDEDC394FA4E
:09107D0050EE000000000D80F3AC
:011086002247
:1010E400438910D288D2A8D2AFD2B2D294D2957505
:0610F400A88175880122AD
:100D3B007F0A7E0012106D7F0A7E001210877BFFE8
:100D4B007A1079A0E4FD7F02120DB8E52F14600B29
:100D5B000470157BFF7A1079A780067BFF7A1079D8
:0F0D6B00AF7D037F02120DB87F0A7E0002108752
:030003000205EE05
:1005EE00C0E0C0F0C083C082C0D075D000C000C0D3
:0D05FE0001C002C003C004C005C006C00754
:10060B00752200C2A87F0F12113230B205D2A80298
:10061B00075220B2077F0112113280F6E4FC7521DC
:10062B000030B2077F0112113280F620B2077F0132
:10063B0012113280F630B2137F011211320522E50E
:10064B0022C3941E40EFD2A802075274322CF8C07A
:10065B0000E6C313D000F6E522C3940840087432B9
:10066B002CF8E64480F67522000521E521C3940899
:10067B0040AF0CEC640470A6E535F465346005D22C
:10068B00A8020752E534540FF537E534C4540FF57F
:10069B0038E537D39409400474378002743025371A
:1006AB00F537E538D394094004743780027430254C
:1006BB0038F538752E00E5341204FA06FC0806ED01
:1006CB000C06E81606F21807011C070B4207154A21
:1006DB0007105207065A06F75E00000718752E0022
:1006EB00802B752E018026752E028021752E03809E
:1006FB001C752E048017752E058012752E06800D25
:10070B00752E078008752E088003752E09E5346455
:10071B00457034E53164014530702CF530F531F519
:10072B0034C294F52F7F01FE121087E534B44512C5
:10073B00E5314530700CF530753101F534D29475D7
:07074B002F01121156D2A884
:10075200D007D006D005D004D003D002D001D000FB
:0B076200D0D0D082D083D0F0D0E032A5
:0F115600E4FC7F04121132B2950CBC64F5D29503
:011165002267
:10116600438910758DFC758B18D2A9D28ED2AF2209
:03001B00020E636F
:100E6300C0E0C0D0758DFC758B18E534B4450EE534
:100E730031640145307006F530F531C294E534B480
:100E8300450DE53145307007F530753101D294D009
:040E9300D0D0E032A9
:0B118400CEC2B6C83A00000000000018
:080F2A000616C9E3CACFB6C8E0
:10110D007BFF7A117984E4FD7F03120DB81210B7BD
:03111D0002076D59
:04076D008E238F2424
:1007710078257C007D007BFF7A11798A7E007F05D8
:100781001203ABC3E52364809480501D75992D300D
:1007910099FDC2997F2D120FBFE524152470021512
:1007A100236324FF6323FF800D7F2B120FBF7599F5
:1007B1002B3099FDC299AC23AD24EC1202218F2D6F
:1007C1008E2C8D2B8C2AE4FFFE7DC87C40AB2DAA9C
:1007D1002CA92BA82A120116E4FBFAF9783F120082
:1007E1002512025A8E238F24AE23AF247C277D103D
:1007F1001204518F25AE23AF247C277D10120451A2
:100801007E037FE8CFCDCFCECCCE1204518F26AE62
:1008110023AF247C037DE81204517E007F64CFCD99
:10082100CFCECCCE1204518F27AE23AF247C007DD6
:10083100641204517E007F0ACFCDCFCECCCE1204FC
:10084100518F28AE23AF247C007D0A1204518D29DB
:10085100E5252430FF120FBFE5252430F5993099A5
:10086100FDC299E5262430FF120FBFE5262430F59D
:10087100993099FDC299E5272430FF120FBFE52772
:100881002430F5993099FDC2997F2E120FBF7599C9
:100891002E3099FDC299E5282430FF120FBFE528BB
:1008A1002430F5993099FDC299E5292430FF120FC2
:1008B100BFE5292430F5993099FDC299E4FF7416FA
:1008C1002FF8E6F5993099FDC2990FBF06F07F43E5
:0308D100020FBF54
:10114400759850758920758780758DF3758BF3D2EA
:021154008E22E9
:100FFF00D3EF9400EE940040147D6E7C00ED1D70D5
:0D100F00011CED4C70F7EF1F70E61E80E332
:01101C0022B1
:100E9700C2B77F467E00EF1FAC0670011E4C70F68E
:100EA700D2B7E4FEFF30B7110FBF00010ED3EF94A6
:0B0EB70088EE941340EF7F00227F01C3
:010EC200220D
:0C0CF900120E977F017E00120FFF7FCCCF
:100D0500E4FBFAC2B70525E52570020524EF139229
:100D1500B7752400752506E5251525AC2470021543
:100D2500244C70F3D2B7EFC313FF0BBB00010AEBE2
:050D350064084A70CEC5
:010D3A002296
:100D7A007D087C00C2B70FBF0000D2B70FBF0000CA
:100D8A000FBF0000A2B7E433C43333335480FBE906
:100D9A00C3134BF97E007F04EF1FAA0670011E4A97
:0D0DAA0070F6ED1D70011CED4C70C9AF011D
:010DB7002219
:08119700120CF97F44020D0562
:08119F00120CF97FBE020D05E0
:1010B700E4FFFE12119712119F120D7A8F23120D62
:0610C7007AEFFEE523FFB5
:0110CD002200
:020F3200C101FB
:1008D4002001030210CE2001030209AE20A22E7FC4
:1008E400017E0012108720A20C051CE51CC394078E
:1008F4004003E4F51CE523C39432500E20A20B7F81
:10090400017E00121087052380EBE4F52330A10358
:100914000209AE7F017E0012108720A1727408259F
:100924001CF8067408251CF8E6540FD394094004F7
:10093400740626F67408251CF8E6C394604008E59E
:100944001C94025002E4F67408251CF8E6C39424AF
:100954004007E51CB40202E4F67408251CF8E6C35B
:1009640094324007E51CB40302E4F67408251CF82D
:10097400E6C394134007E51CB40402E4F6740825A6
:100984001CF8E6C394074007E51CB405027601E5AC
:1009940023C39432500E20A10B7F017E00121087D6
:0A09A400052380EBE4F523120F7C1D
:0109AE002226
:0711A700D28AD2AAD2AF22C6
:03001300020C1EBE
:100C1E00C0E0C0F0C083C082C0D075D000C000C09C
:100C2E0001C002C003C004C005C006C00720B31235
:100C3E007F017E0012108720B308B201751C0012CE
:100C4E0010CED007D006D005D004D003D002D001EC
:0D0C5E00D000D0D0D082D083D0F0D0E032D2
:10001E000202C6E86480F8E933E83360110460F048
:10002E00ED33EC337009E8FCE9FDEAFEEBFF220448
:10003E0060DED3EB9FEA9EE99DE8C2E78CF0C2F743
:10004E0095F0400CE8CCF8E9CDF9EACEFAEBCFFB0F
:10005E0012029185D0F05804700320D5B3E80470D5
:10006E00075002B2D50202D092D5EC0460F7E4CC70
:10007E00C0E0C398F8603B94186008400DD0E0FBD8
:10008E000202A8E4FBFAC9FC8028E830E406E4C9C1
:10009E00FBE4CAFCE830E305E4C9CACBFCE854072C
:1000AE006010F8C3E913F9EA13FAEB13FBEC13FC37
:1000BE00D8F130F52FC3E49CFCEF9BFFEE9AFEEDDA
:1000CE0099FDD0E0FBEF4E4D4C701222DB03020285
:1000DE00CDEC2CFCEF33FFEE33FEED33FDED30E7D0
:1000EE00EB0202A8EF2BFFEE3AFEED39FDD0E0FB5E
:1000FE0050130BBB00030202D0ED13FDEE13FEEF07
:08010E0013FFEC13FC0202A830
:10011600EC4D6011E8497017ED33EC3304600DE4E3
:10012600FCFFFEFD22E933E8330470F80202C61232
:10013600029158046009E4CC248150062850090233
:1001460002D02840030202CDC0E0EB4A7044B980D9
:1001560006D0E0FB0202BCEF4E701CBD8008EBFF30
:10016600EAFEE9FD80EBE98DF0A4FEE5F00201FF71
:10017600E9CDF9EAFEEBFFEF89F0A4FCE5F0CE89C4
:10018600F0A42EFFE435F0CD89F0A42DFEE435F081
:100196008067EF4E7005BD80D780C3EF8BF0A4ACAF
:1001A600F0EE8BF0A42CFCE435F0F8EF8AF0A42CEA
:1001B600E5F038FCE433CB8DF0A42CFCE5F03BF8FD
:1001C600EE8AF0A42CFCE5F038F8E433CF89F0A4ED
:1001D6002CFCE5F038CF3400CE89F0A42FFFE5F0F3
:1001E6003EFEE433C98DF0A42EFEE5F039CD8AF04B
:1001F600A42FFFE5F03EFEE43DFD33D0E0FB5007C3
:100206000BBB000F0202D0EC2CFCEF33FFEE33FEEB
:06021600ED33FD0202A819
:10021C0075F020800E75F010800575F0087D007E5D
:10022C00007F003392D530D5031204D6EC33401046
:10023C00EF33FFEE33FEED33FDEC33FCD5F0ED2266
:0E024C00E5F0247EA2D513CC92E7CDCEFF22A2
:10025A00EDD2E7CD33EC3392D524814006E4FFFE9C
:10026A00FDFC22FCE4CFCECDCC24E0501174FF80FB
:10027A00EDC3CC13CCCD13CDCE13CECF13CF047098
:07028A00F030D5DE0204D6BE
:10029100E9D2E7C933E833F892D5EDD2E7CD33ECB3
:0702A10033FC5002B2D5222C
:1002A800EC30E7100FBF000C0EBE00080DBD0004B7
:1002B8000BEB6014A2D5EB13FCED92E7FD2274FF63
:1002C800FCFDFEFF22E480F8A2D574FF13FC7D80BC
:0302D800E480EFD0
:03000000020A3EB3
:0C0A3E00787FE4F6D8FD75813D020A8542
:1002DB00E709F608DFFA8046E709F208DFFA803E05
:1002EB0088828C83E709F0A3DFFA8032E309F608F2
:1002FB00DFFA8078E309F208DFFA807088828C835A
:10030B00E309F0A3DFFA806489828A83E0A3F6080D
:10031B00DFFA805889828A83E0A3F208DFFA804CE7
:10032B0080D280FA80C680D4806980F280338010BE
:10033B0080A680EA809A80A880DA80E280CA803327
:10034B0089828A83ECFAE493A3C8C582C8CCC5839F
:10035B00CCF0A3C8C582C8CCC583CCDFE9DEE7806F
:10036B000D89828A83E493A3F608DFF9ECFAA9F0EE
:10037B00EDFB2289828A83ECFAE0A3C8C582C8CC44
:10038B00C583CCF0A3C8C582C8CCC583CCDFEADE5D
:10039B00E880DB89828A83E493A3F208DFF980CCBF
:1003AB0088F0EF60010E4E60C388F0ED2402B404B8
:1003BB000050B9F582EB2402B4040050AF2323455F
:0603CB00822390032B7356
:1003D100BB010689828A83E0225002E722BBFE022A
:0903E100E32289828A83E493225D
:1003EA00EF8DF0A4A8F0CF8CF0A428CE8DF0A42E27
:0203FA00FE22E1
:1003FC00BC000BBE0029EF8DF084FFADF022E4CCE5
:10040C00F875F008EF2FFFEE33FEEC33FCEE9DECAD
:10041C00984005FCEE9DFE0FD5F0E9E4CEFD22EDF3
:10042C00F8F5F0EE8420D21CFEADF075F008EF2F3D
:10043C00FFED33FD4007985006D5F0F222C398FD2E
:05044C000FD5F0EA22CB
:10045100C2D5EC30E709B2D5E4C39DFDE49CFCEEC6
:1004610030E715B2D5E4C39FFFE49EFE1203FCC33F
:10047100E49DFDE49CFC80031203FC30D507C3E43A
:060481009FFFE49EFE2235
:10048700E88FF0A4CC8BF0A42CFCE98EF0A42CFC14
:100497008AF0EDA42CFCEA8EF0A4CDA8F08BF0A492
:1004A7002DCC3825F0FDE98FF0A42CCD35F0FCEBF1
:1004B7008EF0A4FEA9F0EB8FF0A4CFC5F02ECD39B6
:0F04C700FEE43CFCEAA42DCE35F0FDE43CFC2223
:100CB500C2D5E830E70FB2D5E4C39BFBE49AFAE46A
:100CC50099F9E498F8EC30E717B2D5120CEB120558
:100CD5005CE4C39BFBE49AFAE499F9E498F8800391
:100CE50012055C30D50DE4C39FFFE49EFEE49DFD37
:040CF500E49CFC225D
:0E04D600C3E49FFFE49EFEE49DFDE49CFC2237
:1004E400EB9FF5F0EA9E42F0E99D42F0EC6480C88F
:0604F40064809845F0222F
:1004FA00D083D082F8E4937012740193700DA3A391
:10050A0093F8740193F5828883E4737402936860A4
:06051A00EFA3A3A380DFA4
:100A4A00020EC3E493A3F8E493A34003F68001F2F1
:100A5A0008DFF48029E493A3F85407240CC8C333AD
:100A6A00C4540F4420C8834004F456800146F6DF7C
:100A7A00E4800B0102040810204080900F11E47EEC
:100A8A00019360BCA3FF543F30E509541FFEE49371
:100A9A00A360010ECF54C025E060A840B8E493A338
:100AAA00FAE493A3F8E493A3C8C582C8CAC583CA63
:100ABA00F0A3C8C582C8CAC583CADFE9DEE780BE1B
:010F340000BC
:1005200075F008758200EF2FFFEE33FECD33CDCC92
:1005300033CCC58233C5829BED9AEC99E582984015
:100540000CF582EE9BFEED9AFDEC99FC0FD5F0D6F2
:10055000E4CEFBE4CDFAE4CCF9A88222B800C1B91C
:100560000059BA002DEC8BF084CFCECDFCE5F0CB5A
:10057000F97818EF2FFFEE33FEED33FDEC33FCEB93
:1005800033FB10D703994004EB99FB0FD8E5E4F94E
:10059000FA227818EF2FFFEE33FEED33FDEC33FC3B
:1005A000C933C910D7059BE99A4007EC9BFCE99A2F
:1005B000F90FD8E0E4C9FAE4CCFB2275F010EF2F74
:1005C000FFEE33FEED33FDCC33CCC833C810D70774
:1005D0009BEC9AE899400AED9BFDEC9AFCE899F8AF
:0E05E0000FD5F0DAE4CDFBE4CCFAE4C8F92242
:00000001FF
